{
  "contractName": "tes",
  "abi": [
    {
      "inputs": [],
      "name": "good",
      "outputs": [
        {
          "internalType": "bytes",
          "name": "name",
          "type": "bytes"
        },
        {
          "internalType": "bytes",
          "name": "img",
          "type": "bytes"
        },
        {
          "internalType": "bool",
          "name": "isClaim",
          "type": "bool"
        }
      ],
      "stateMutability": "view",
      "type": "function"
    },
    {
      "inputs": [
        {
          "internalType": "uint256",
          "name": "",
          "type": "uint256"
        }
      ],
      "name": "goodsList",
      "outputs": [
        {
          "internalType": "bytes",
          "name": "name",
          "type": "bytes"
        },
        {
          "internalType": "bytes",
          "name": "img",
          "type": "bytes"
        },
        {
          "internalType": "bool",
          "name": "isClaim",
          "type": "bool"
        }
      ],
      "stateMutability": "view",
      "type": "function"
    },
    {
      "inputs": [],
      "name": "getValue",
      "outputs": [
        {
          "internalType": "bytes",
          "name": "",
          "type": "bytes"
        }
      ],
      "stateMutability": "view",
      "type": "function"
    },
    {
      "inputs": [],
      "name": "add",
      "outputs": [],
      "stateMutability": "nonpayable",
      "type": "function"
    },
    {
      "inputs": [],
      "name": "getArray",
      "outputs": [
        {
          "components": [
            {
              "internalType": "bytes",
              "name": "name",
              "type": "bytes"
            },
            {
              "internalType": "bytes",
              "name": "img",
              "type": "bytes"
            },
            {
              "internalType": "bool",
              "name": "isClaim",
              "type": "bool"
            }
          ],
          "internalType": "struct tes.Goods",
          "name": "",
          "type": "tuple"
        }
      ],
      "stateMutability": "view",
      "type": "function"
    },
    {
      "inputs": [],
      "name": "getLength",
      "outputs": [
        {
          "internalType": "uint256",
          "name": "",
          "type": "uint256"
        }
      ],
      "stateMutability": "view",
      "type": "function"
    }
  ],
  "bytecode": "0x608060405260405180606001604052806040518060400160405280600381526020017f313233000000000000000000000000000000000000000000000000000000000081525081526020016040518060400160405280600281526020017f7a780000000000000000000000000000000000000000000000000000000000008152508152602001600015158152506000808201518160000190805190602001906100a99291906100fb565b5060208201518160010190805190602001906100c69291906100fb565b5060408201518160020160006101000a81548160ff02191690831515021790555050503480156100f557600080fd5b506101fe565b828054610107906101cd565b90600052602060002090601f0160209004810192826101295760008555610170565b82601f1061014257805160ff1916838001178555610170565b82800160010185558215610170579182015b8281111561016f578251825591602001919060010190610154565b5b50905061017d9190610181565b5090565b5b8082111561019a576000816000905550600101610182565b5090565b7f4e487b7100000000000000000000000000000000000000000000000000000000600052602260045260246000fd5b600060028204905060018216806101e557607f821691505b6020821081036101f8576101f761019e565b5b50919050565b610ae0806200020e6000396000f3fe608060405234801561001057600080fd5b50600436106100625760003560e01c8063209652551461006757806328d27f09146100855780634f2be91f146100b7578063aa8fb40b146100c1578063be1c766b146100e1578063d504ea1d146100ff575b600080fd5b61006f61011d565b60405161007c9190610835565b60405180910390f35b61009f600480360381019061009a9190610892565b6101b2565b6040516100ae939291906108da565b60405180910390f35b6100bf610309565b005b6100c961041a565b6040516100d8939291906108da565b60405180910390f35b6100e961054f565b6040516100f6919061092e565b60405180910390f35b61010761055c565b60405161011491906109f9565b60405180910390f35b60606000600101805461012f90610a4a565b80601f016020809104026020016040519081016040528092919081815260200182805461015b90610a4a565b80156101a85780601f1061017d576101008083540402835291602001916101a8565b820191906000526020600020905b81548152906001019060200180831161018b57829003601f168201915b5050505050905090565b600381815481106101c257600080fd5b90600052602060002090600302016000915090508060000180546101e590610a4a565b80601f016020809104026020016040519081016040528092919081815260200182805461021190610a4a565b801561025e5780601f106102335761010080835404028352916020019161025e565b820191906000526020600020905b81548152906001019060200180831161024157829003601f168201915b50505050509080600101805461027390610a4a565b80601f016020809104026020016040519081016040528092919081815260200182805461029f90610a4a565b80156102ec5780601f106102c1576101008083540402835291602001916102ec565b820191906000526020600020905b8154815290600101906020018083116102cf57829003601f168201915b5050505050908060020160009054906101000a900460ff16905083565b600360405180606001604052806040518060400160405280600381526020017f313233000000000000000000000000000000000000000000000000000000000081525081526020016040518060400160405280600281526020017f7a78000000000000000000000000000000000000000000000000000000000000815250815260200160001515815250908060018154018082558091505060019003906000526020600020906003020160009091909190915060008201518160000190805190602001906103d89291906106d6565b5060208201518160010190805190602001906103f59291906106d6565b5060408201518160020160006101000a81548160ff0219169083151502179055505050565b600080600001805461042b90610a4a565b80601f016020809104026020016040519081016040528092919081815260200182805461045790610a4a565b80156104a45780601f10610479576101008083540402835291602001916104a4565b820191906000526020600020905b81548152906001019060200180831161048757829003601f168201915b5050505050908060010180546104b990610a4a565b80601f01602080910402602001604051908101604052809291908181526020018280546104e590610a4a565b80156105325780601f1061050757610100808354040283529160200191610532565b820191906000526020600020905b81548152906001019060200180831161051557829003601f168201915b5050505050908060020160009054906101000a900460ff16905083565b6000600380549050905090565b61056461075c565b600360008154811061057957610578610a7b565b5b90600052602060002090600302016040518060600160405290816000820180546105a290610a4a565b80601f01602080910402602001604051908101604052809291908181526020018280546105ce90610a4a565b801561061b5780601f106105f05761010080835404028352916020019161061b565b820191906000526020600020905b8154815290600101906020018083116105fe57829003601f168201915b5050505050815260200160018201805461063490610a4a565b80601f016020809104026020016040519081016040528092919081815260200182805461066090610a4a565b80156106ad5780601f10610682576101008083540402835291602001916106ad565b820191906000526020600020905b81548152906001019060200180831161069057829003601f168201915b505050505081526020016002820160009054906101000a900460ff161515151581525050905090565b8280546106e290610a4a565b90600052602060002090601f016020900481019282610704576000855561074b565b82601f1061071d57805160ff191683800117855561074b565b8280016001018555821561074b579182015b8281111561074a57825182559160200191906001019061072f565b5b509050610758919061077f565b5090565b604051806060016040528060608152602001606081526020016000151581525090565b5b80821115610798576000816000905550600101610780565b5090565b600081519050919050565b600082825260208201905092915050565b60005b838110156107d65780820151818401526020810190506107bb565b838111156107e5576000848401525b50505050565b6000601f19601f8301169050919050565b60006108078261079c565b61081181856107a7565b93506108218185602086016107b8565b61082a816107eb565b840191505092915050565b6000602082019050818103600083015261084f81846107fc565b905092915050565b600080fd5b6000819050919050565b61086f8161085c565b811461087a57600080fd5b50565b60008135905061088c81610866565b92915050565b6000602082840312156108a8576108a7610857565b5b60006108b68482850161087d565b91505092915050565b60008115159050919050565b6108d4816108bf565b82525050565b600060608201905081810360008301526108f481866107fc565b9050818103602083015261090881856107fc565b905061091760408301846108cb565b949350505050565b6109288161085c565b82525050565b6000602082019050610943600083018461091f565b92915050565b600082825260208201905092915050565b60006109658261079c565b61096f8185610949565b935061097f8185602086016107b8565b610988816107eb565b840191505092915050565b61099c816108bf565b82525050565b600060608301600083015184820360008601526109bf828261095a565b915050602083015184820360208601526109d9828261095a565b91505060408301516109ee6040860182610993565b508091505092915050565b60006020820190508181036000830152610a1381846109a2565b905092915050565b7f4e487b7100000000000000000000000000000000000000000000000000000000600052602260045260246000fd5b60006002820490506001821680610a6257607f821691505b602082108103610a7557610a74610a1b565b5b50919050565b7f4e487b7100000000000000000000000000000000000000000000000000000000600052603260045260246000fdfea264697066735822122082776866ed8b1889d55d22377b4aaf2818eceef123a42a89f58fcf11824fb63064736f6c634300080d0033",
  "immutableReferences": {},
  "source": "pragma solidity >=0.5.0;\r\n// SPDX-License-Identifier: MIT\r\n\r\ncontract tes {\r\n    struct Goods {\r\n        bytes name;\r\n        bytes img;\r\n        bool isClaim;\r\n    }\r\n\r\nGoods public good = Goods(\"123\",\"zx\", false);\r\nGoods[] public goodsList;\r\n\r\nfunction getValue() public view returns(bytes memory) { //it can work\r\n    return good.img;\r\n}\r\n\r\nfunction add() public{\r\n    goodsList.push(Goods(\"123\",\"zx\", false)); //VM Exception while processing transaction: revert\r\n}\r\n\r\nfunction getArray() public view returns(Goods memory){ \r\n   return goodsList[0]; //VM Exception while processing transaction: revert\r\n}\r\n\r\nfunction getLength() public view returns(uint256) {\r\n    return goodsList.length; //VM Exception while processing transaction: revert\r\n}\r\n}",
  "sourcePath": "E:\\Program Files (x86)\\CODE\\CODE\\_truffle\\Concery\\contracts\\tes.sol",
  "compiler": {
    "name": "solc",
    "version": "0.8.13+commit.abaa5c0e.Emscripten.clang"
  },
  "schemaVersion": "3.4.7",
  "updatedAt": "2022-04-11T04:59:55.452Z",
  "devdoc": {
    "kind": "dev",
    "methods": {},
    "version": 1
  },
  "userdoc": {
    "kind": "user",
    "methods": {},
    "version": 1
  }
}